{
  "contractName": "impV1",
  "abi": [
    {
      "inputs": [],
      "name": "returnedNumber",
      "outputs": [
        {
          "internalType": "uint256",
          "name": "",
          "type": "uint256"
        }
      ],
      "stateMutability": "view",
      "type": "function",
      "constant": true
    },
    {
      "inputs": [],
      "name": "returnedNumber2",
      "outputs": [
        {
          "internalType": "uint256",
          "name": "",
          "type": "uint256"
        }
      ],
      "stateMutability": "view",
      "type": "function",
      "constant": true
    },
    {
      "inputs": [
        {
          "internalType": "uint256",
          "name": "n",
          "type": "uint256"
        }
      ],
      "name": "fib",
      "outputs": [
        {
          "internalType": "uint256",
          "name": "",
          "type": "uint256"
        }
      ],
      "stateMutability": "pure",
      "type": "function",
      "constant": true
    },
    {
      "inputs": [
        {
          "internalType": "uint256",
          "name": "_number",
          "type": "uint256"
        }
      ],
      "name": "setNumber",
      "outputs": [],
      "stateMutability": "nonpayable",
      "type": "function"
    }
  ],
  "bytecode": "0x608060405234801561001057600080fd5b506102e9806100206000396000f3fe608060405234801561001057600080fd5b506004361061004c5760003560e01c80633fb5c1cb14610051578063c65c8a391461006d578063c6c2ea171461008b578063db4060be146100bb575b600080fd5b61006b6004803603810190610066919061018e565b6100d9565b005b6100756100e3565b60405161008291906101ca565b60405180910390f35b6100a560048036038101906100a0919061018e565b6100e9565b6040516100b291906101ca565b60405180910390f35b6100c361014d565b6040516100d091906101ca565b60405180910390f35b8060008190555050565b60015481565b6000808214156100fc5760009050610148565b6000600190506000600190506000600290505b8481101561014157600082846101259190610214565b90508392508093505080806101399061026a565b91505061010f565b5081925050505b919050565b60005481565b600080fd5b6000819050919050565b61016b81610158565b811461017657600080fd5b50565b60008135905061018881610162565b92915050565b6000602082840312156101a4576101a3610153565b5b60006101b284828501610179565b91505092915050565b6101c481610158565b82525050565b60006020820190506101df60008301846101bb565b92915050565b7f4e487b7100000000000000000000000000000000000000000000000000000000600052601160045260246000fd5b600061021f82610158565b915061022a83610158565b9250827fffffffffffffffffffffffffffffffffffffffffffffffffffffffffffffffff0382111561025f5761025e6101e5565b5b828201905092915050565b600061027582610158565b91507fffffffffffffffffffffffffffffffffffffffffffffffffffffffffffffffff8214156102a8576102a76101e5565b5b60018201905091905056fea26469706673582212207261da0c46f978a34ba38b55ffb2f59926147cf02fdbd5e35d046077da4c7e3264736f6c634300080c0033",
  "immutableReferences": {},
  "source": "// SPDX-License-Identifier: MIT\npragma solidity >=0.4.22 <0.9.0;\n\ncontract impV1 {\n\n   uint public returnedNumber;\n   uint public returnedNumber2;\n\n  function fib(uint n) pure external returns(uint) {\n    if(n == 0) {\n      return 0;\n    }\n    uint fi_1 = 1;\n    uint fi_2 = 1;\n    for(uint i = 2; i < n; i++) {\n      uint fi = fi_1 + fi_2;\n      fi_2 = fi_1;\n      fi_1 = fi;\n    }\n    return fi_1;\n  }\n\n  function setNumber(uint _number) public  {\n    returnedNumber = _number;\n  }\n}\n",
  "sourcePath": "C:\\Users\\aek\\Desktop\\Projects\\truffle-proxy\\contracts\\impV1.sol",
  "compiler": {
    "name": "solc",
    "version": "0.8.12+commit.f00d7308.Emscripten.clang"
  },
  "schemaVersion": "3.4.6",
  "updatedAt": "2022-03-14T14:00:01.478Z",
  "networkType": "ethereum",
  "devdoc": {
    "kind": "dev",
    "methods": {},
    "version": 1
  },
  "userdoc": {
    "kind": "user",
    "methods": {},
    "version": 1
  }
}