{
  "contractName": "impV2",
  "abi": [
    {
      "inputs": [],
      "name": "returnedNumber",
      "outputs": [
        {
          "internalType": "uint256",
          "name": "",
          "type": "uint256"
        }
      ],
      "stateMutability": "view",
      "type": "function",
      "constant": true
    },
    {
      "inputs": [],
      "name": "returnedNumber2",
      "outputs": [
        {
          "internalType": "uint256",
          "name": "",
          "type": "uint256"
        }
      ],
      "stateMutability": "view",
      "type": "function",
      "constant": true
    },
    {
      "inputs": [
        {
          "internalType": "uint256",
          "name": "n",
          "type": "uint256"
        }
      ],
      "name": "fib",
      "outputs": [
        {
          "internalType": "uint256",
          "name": "",
          "type": "uint256"
        }
      ],
      "stateMutability": "pure",
      "type": "function",
      "constant": true
    },
    {
      "inputs": [
        {
          "internalType": "uint256",
          "name": "_number",
          "type": "uint256"
        }
      ],
      "name": "setNumber",
      "outputs": [],
      "stateMutability": "nonpayable",
      "type": "function"
    },
    {
      "inputs": [
        {
          "internalType": "uint256",
          "name": "_number",
          "type": "uint256"
        }
      ],
      "name": "setNumber2",
      "outputs": [],
      "stateMutability": "nonpayable",
      "type": "function"
    }
  ],
  "bytecode": "0x608060405234801561001057600080fd5b5061031a806100206000396000f3fe608060405234801561001057600080fd5b50600436106100575760003560e01c80633fb5c1cb1461005c578063c65c8a3914610078578063c6c2ea1714610096578063ce29371b146100c6578063db4060be146100e2575b600080fd5b610076600480360381019061007191906101bf565b610100565b005b61008061010a565b60405161008d91906101fb565b60405180910390f35b6100b060048036038101906100ab91906101bf565b610110565b6040516100bd91906101fb565b60405180910390f35b6100e060048036038101906100db91906101bf565b610174565b005b6100ea61017e565b6040516100f791906101fb565b60405180910390f35b8060008190555050565b60015481565b600080821415610123576000905061016f565b6000600190506000600190506000600290505b84811015610168576000828461014c9190610245565b90508392508093505080806101609061029b565b915050610136565b5081925050505b919050565b8060018190555050565b60005481565b600080fd5b6000819050919050565b61019c81610189565b81146101a757600080fd5b50565b6000813590506101b981610193565b92915050565b6000602082840312156101d5576101d4610184565b5b60006101e3848285016101aa565b91505092915050565b6101f581610189565b82525050565b600060208201905061021060008301846101ec565b92915050565b7f4e487b7100000000000000000000000000000000000000000000000000000000600052601160045260246000fd5b600061025082610189565b915061025b83610189565b9250827fffffffffffffffffffffffffffffffffffffffffffffffffffffffffffffffff038211156102905761028f610216565b5b828201905092915050565b60006102a682610189565b91507fffffffffffffffffffffffffffffffffffffffffffffffffffffffffffffffff8214156102d9576102d8610216565b5b60018201905091905056fea2646970667358221220004f6afeae4a19b0a132420f87e005759ec5f3d7486a1d8702c2745857845c3464736f6c634300080c0033",
  "immutableReferences": {},
  "source": "// SPDX-License-Identifier: MIT\npragma solidity >=0.4.22 <0.9.0;\n\ncontract impV2 {\n\n   uint public returnedNumber;\n   uint public returnedNumber2;\n\n\n  function fib(uint n) pure external returns(uint) {\n    if(n == 0) {\n      return 0;\n    }\n    uint fi_1 = 1;\n    uint fi_2 = 1;\n    for(uint i = 2; i < n; i++) {\n      uint fi = fi_1 + fi_2;\n      fi_2 = fi_1;\n      fi_1 = fi;\n    }\n    return fi_1;\n  }\n\n  function setNumber(uint _number) public  {\n    returnedNumber = _number;\n  }\n    function setNumber2(uint _number) public  {\n    returnedNumber2 = _number;\n  }\n}\n",
  "sourcePath": "C:\\Users\\aek\\Desktop\\Projects\\truffle-proxy\\contracts\\impV2.sol",
  "compiler": {
    "name": "solc",
    "version": "0.8.12+commit.f00d7308.Emscripten.clang"
  },
  "schemaVersion": "3.4.6",
  "updatedAt": "2022-03-14T14:00:01.486Z",
  "networkType": "ethereum",
  "devdoc": {
    "kind": "dev",
    "methods": {},
    "version": 1
  },
  "userdoc": {
    "kind": "user",
    "methods": {},
    "version": 1
  }
}